S015000050554C534F585976302E302E312E7372656368
S11300000C9434000C9451000C9451000C94510045
S11300100C9451000C9451000C9451000C94510018
S11300200C9451000C9451000C9451000C94510008
S11300300C9451000C9451000C9451000C945100F8
S11300400C9451000C9451000C9451000C945100E8
S11300500C9451000C9451000C9451000C945100D8
S11300600C9451000C94510011241FBECFEFD8E022
S1130070DEBFCDBF11E0A0E0B1E0E0E7F8E002C0F0
S113008005900D92A030B107D9F721E0A0E0B1E0CE
S113009001C01D92A832B207E1F70E94F5010C9449
S11300A036040C940000CF93DF93CDB7DEB784E61B
S11300B090E024E630E0F90120812E7FFC012083CA
S11300C08AE790E0FC0110828BE790E0FC0110824B
S11300D08CE790E0FC0110828CE790E02CE730E0A4
S11300E0F90120812064FC0120838CE790E02CE757
S11300F030E0F90120812062FC0120838AE790E04E
S11301002AE730E0F90120812660FC0120838AE798
S113011090E02AE730E0F90120812068FC01208387
S11301200000DF91CF910895CF93DF9300D01F9209
S1130130CDB7DEB78B8319821A828CE790E02CE767
S113014030E0F9012081207FFC0120838CE790E0DE
S11301502CE730E0F9012081322F2B812F70232BE3
S1130160FC0120838AE790E02AE730E0F90120814E
S11301702064FC01208300008AE790E0FC01808178
S1130180882F90E080719927892BB1F388E790E05C
S1130190FC018081898389E790E0FC0180818A8366
S11301A08A81882F90E09C01220F331F220F331F76
S11301B089818295869586958370882F90E0822B1D
S11301C0932B0F900F900F90DF91CF910895CF93C1
S11301D0DF93CDB7DEB784E690E024E630E0F901A2
S11301E02081277FFC01208384E290E024E230E038
S11301F0F90120812460FC01208380E890E0FC0167
S1130200108281E890E0FC01108282E890E0FC0119
S1130210108280E890E020E830E0F9012081206A33
S1130220FC01208380E890E020E830E0F90120819F
S11302302360FC01208381E890E021E830E0F901AB
S113024020812860FC01208381E890E021E830E0EF
S1130250F90120812160FC0120838AE890E020E0FC
S113026032E0FC01318320830000DF91CF910895B7
S1130270CF93DF93CDB7DEB784E690E024E630E099
S1130280F90120812F7BFC01208380EB90E0FC01AD
S1130290108281EB90E0FC01108282EB90E0FC0183
S11302A0108280EB90E020EB30E0F90120812260A5
S11302B0FC01208381EB90E021EB30E0F901208107
S11302C02560FC01208383EB90E029EFFC0120836F
S11302D080E790E020E730E0F90120812260FC0112
S11302E020830000DF91CF910895CF93DF93CDB7A2
S11302F0DEB780EC90E020EC30E0F9012081226050
S1130300FC01208381EC90E028E1FC01208382EC55
S113031090E026E0FC01208384EC90E02FECFC01CB
S113032020830000DF91CF9108950F931F93CF9303
S1130330DF93CDB7DEB762970FB6F894DEBF0FBE7A
S1130340CDBF6F87788B898B9A8BCE0104969B8364
S11303508A838F8598892A813B814AE050E0B901DC
S11303600E94F60319821BC0000080EC90E0FC019F
S11303708081882F90E080729927892BB1F386ECD5
S113038090E02981222F30E04A815B81240F351FC0
S1130390F9012081FC01208389818F5F8983898110
S11303A0082F10E0CE0104960E94ED0308171907E8
S11303B0D8F2000080EC90E0FC018081882F90E06E
S11303C080729927892BB1F386EC90E02AE0FC0136
S11303D02083000062960FB6F894DEBF0FBECDBF37
S11303E0DF91CF911F910F910895AF92BF92CF9259
S11303F0DF92EF92FF920F931F93CF93DF93CDB7CA
S1130400DEB7F8940E9453000E9438010E94E7006E
S11304100E94750178940E947F028091100190914E
S11304201101A0911201B09113010E949501109243
S11304300001109201011092020110920301109226
S1130440040110920501109206011092070133C0B5
S1130450A0900001B0900101C0900201D09003016E
S1130460E0900401F090050100910601109107014C
S11304702A2D3B2D4C2D5D2D6E2D7F2D802F912F00
S1130480A1E00E94D203A22EB32EC42ED52EE62EB6
S1130490F72E082F192FA0920001B0920101C092EB
S11304A00201D0920301E0920401F092050100934D
S11304B0060110930701A0900001B0900101C090C3
S11304C00201D0900301E0900401F0900501009135
S11304D00601109107012A2D3B2D4C2D5D2D6E2D0B
S11304E07F2D802F912F2F3F3544434C534261057C
S11304F071058105910509F008F4AACF8CCFEF921C
S1130500FF920F931F93CF93DF93CDB7DEB782E0B3
S11305100E949400909309018093080183E00E9453
S1130520940090930B0180930A0180E00E94940050
S113053090930D0180930C0181E00E9494009093AC
S11305400F0180930E01209110013091110140910F
S113055012015091130183E790E0DC010E94C7036C
S1130560DC01CB019C01AD01689416F855954795C3
S1130570379527951694D1F7809108019091090138
S1130580BC017250EDE0E69FC001E79F900D11247D
S1130590880F892F881F990B092E000CAA0BBB0BFF
S11305A0820F931FA41FB51F809310019093110114
S11305B0A0931201B09313012091140130911501FD
S11305C0409116015091170183E790E0DC010E94ED
S11305D0C703DC01CB019C01AD01689416F8559565
S11305E04795379527951694D1F780910A019091F4
S11305F00B01BC017250EDE0E69FC001E79F900D36
S11306001124880F892F881F990B092E000CAA0B1F
S1130610BB0B820F931FA41FB51F809314019093EB
S11306201501A0931601B093170120911801309180
S1130630190140911A0150911B018CE790E0DC01F3
S11306400E94C703DC01CB019C01AD01689416F83C
S113065055954795379527951694D1F780910C01B8
S113066090910D01880F991F880F991F880F892F6A
S1130670881F990B092E000CAA0BBB0B820F931F2A
S1130680A41FB51F8093180190931901A0931A0118
S1130690B0931B0120911C0130911D0140911E015A
S11306A050911F018CE790E0DC010E94C703DC013C
S11306B0CB019C01AD01689416F855954795379583
S11306C027951694D1F780910E0190910F01880F10
S11306D0991F880F991F880F892F881F990B092E3E
S11306E0000CAA0BBB0B820F931FA41FB51F809392
S11306F01C0190931D01A0931E01B0931F018091D2
S11307000C0190910D019C01990F440B550B8091A4
S1130710180190911901A0911A01B0911B0179015E
S11307208A01E81AF90A0A0B1B0BD801C701809346
S1130730200190932101A0932201B0932301809181
S11307400E0190910F019C01990F440B550B809160
S11307501C0190911D01A0911E01B0911F0179010E
S11307608A01E81AF90A0A0B1B0BD801C701809306
S1130770240190932501A0932601B0932701000042
S1130780DF91CF911F910F91FF90EF9008950E94F8
S1130790DE03A59F900DB49F900DA49F800D911D25
S11307A0112408950024A7FD00942A0F301D401D34
S11307B0501D601D701D801D901D0895A29FB001E5
S11307C0B39FC001A39F700D811D1124911DB29F81
S11307D0700D811D1124911D0895FC0101900020CC
S11307E0E9F7809590958E0F9F1F08954532510526
S11307F020F4423010F00C940104FB011082CB0170
S11308000895BB274A3031F4992322F4BDE2909530
S113081081959F4F0C940D04BB27FB015527AA27F4
S1130820880F991FAA1FA41710F0A41B8395505179
S1130830B9F7A05DAA3308F0A95DA193009779F7F1
S1130840B111B1931192CB010C942604DC01FC018B
S1130850672F71917723E1F7329704C07C916D93F0
S113086070836291AE17BF07C8F30895F894FFCF61
S9030000FC
