S015000050554C534F585976302E302E312E7372656368
S11300000C9434000C9451000C9451000C94510045
S11300100C9451000C9451000C9451000C947603F0
S11300200C9451000C9451000C9451000C94510008
S11300300C9451000C9451000C9451000C945100F8
S11300400C9451000C9451000C9451000C945100E8
S11300500C9451000C9451000C9451000C945100D8
S11300600C9451000C94510011241FBECFEFD8E022
S1130070DEBFCDBF11E0A0E0B1E0E4EDF0E202C0EC
S113008005900D92AC31B107D9F723E0ACE1B1E0B2
S113009001C01D92A837B207E1F70E9432020C9406
S11300A068100C940000CF93DF93CDB7DEB784E6DD
S11300B090E024E630E0F90120812E7FFC012083CA
S11300C08AE790E0FC0110828BE790E0FC0110824B
S11300D08CE790E0FC0110828CE790E02CE730E0A4
S11300E0F90120812064FC0120838CE790E02CE757
S11300F030E0F90120812062FC0120838AE790E04E
S11301002AE730E0F90120812660FC0120838AE798
S113011090E02AE730E0F90120812068FC01208387
S11301200000DF91CF910895CF93DF9300D01F9209
S1130130CDB7DEB78B8319821A828CE790E02CE767
S113014030E0F9012081207FFC0120838CE790E0DE
S11301502CE730E0F9012081322F2B812F70232BE3
S1130160FC0120838AE790E02AE730E0F90120814E
S11301702064FC01208300008AE790E0FC01808178
S1130180882F90E080719927892BB1F388E790E05C
S1130190FC018081898389E790E0FC0180818A8366
S11301A08A81882F90E09C01220F331F220F331F76
S11301B089818295869586958370882F90E0822B1D
S11301C0932B0F900F900F90DF91CF910895CF93C1
S11301D0DF93CDB7DEB784E690E024E630E0F901A2
S11301E02081277FFC01208384E290E024E230E038
S11301F0F90120812260FC01208384E290E024E262
S113020030E0F90120812460FC01208380E890E043
S1130210FC01108281E890E0FC01108282E890E009
S1130220FC01108280E890E020E830E0F9012081B0
S1130230206AFC01208380E890E020E830E0F901A6
S113024020812260FC01208381E890E021E830E0F5
S1130250F90120812861FC01208381E890E021E8F4
S113026030E0F90120812160FC01208386E890E0E0
S11302702FEF3FE0FC013183208388E890E023EAFC
S113028032E0FC01318320838AE890E023EA32E003
S1130290FC01318320830000DF91CF910895CF9337
S11302A0DF93CDB7DEB784E690E024E630E0F901D1
S11302B020812F7BFC01208380EB90E0FC011082E5
S11302C081EB90E0FC01108282EB90E0FC01108253
S11302D080EB90E020EB30E0F90120812260FC010A
S11302E0208381EB90E021EB30E0F901208125604F
S11302F0FC01208383EB90E029EFFC01208380E75D
S113030090E020E730E0F90120812260FC012083A5
S11303100000DF91CF910895CF93DF93CDB7DEB77F
S113032080EC90E020EC30E0F90120812260FC01B7
S1130330208381EC90E021EC30E0F90120812861F8
S1130340FC01208382EC90E022EC30E0F901208172
S11303502660FC01208384EC90E02FECFC012083D8
S11303600000DF91CF9108950F931F93CF93DF93F4
S1130370CDB7DEB72B970FB6F894DEBF0FBECDBF57
S11303809B878A87CE0104969B838A832A813B813B
S11303908A859B854AE050E0B9010E94281000003C
S11303A080EC90E0FC018081882F90E08072992796
S11303B0892BB1F386EC90E02FE4FC01208300004C
S11303C080EC90E0FC018081882F90E08072992776
S11303D0892BB1F386EC90E028E5FC012083198297
S11303E01BC0000080EC90E0FC018081882F90E02D
S11303F080729927892BB1F386EC90E02981222F12
S113040030E04A815B81240F351FF9012081FC0112
S1130410208389818F5F89838981082F10E0CE0131
S113042004960E941F1008171907D8F2000080ECE8
S113043090E0FC018081882F90E080729927892BBD
S1130440B1F386EC90E02AE0FC01208300002B96B7
S11304500FB6F894DEBF0FBECDBFDF91CF911F91D1
S11304600F910895CF93DF93CDB7DEB727970FB6DB
S1130470F894DEBF0FBECDBFF8940E9453000E94D3
S11304804F010E94E7000E948C0178948091000142
S1130490909101010E945C048AE290E02AE230E03B
S11304A0F90120812460FC0120830E94DD098093EE
S11304B0240180912401882309F059C080E090E050
S11304C00E94B4018BE290E02BE230E0F90120813C
S11304D02460FC01208310922601109227011982C6
S11304E01CC020911A0130911B018981882F90E052
S11304F0880F991F820F931FFC0111821082209193
S11305001801309119018981882F90E0820F931F7F
S1130510FC01108289818F5F898389818A3008F385
S1130520109245011092310180912D01823030F0FA
S113053080910001909101010E945C041A821B8247
S11305401C821D820BC08A819B81AC81BD81019676
S1130550A11DB11D8A839B83AC83BD838A819B814A
S1130560AC81BD8180349244AF40B10560F3809189
S11305702401813009F099CF8BE290E02BE230E046
S1130580F90120812B7FFC012083809156019091F9
S11305905701A0915801B091590180329340A105AF
S11305A0B1056CF480915A0190915B01A0915C01BA
S11305B0B0915D0180329340A105B10544F18BE215
S11305C090E02BE230E0F90120812460FC012083DB
S11305D080910001909101010E94E00A109226018D
S11305E0109227011E820EC020911801309119012A
S11305F08E81882F90E0820F931FFC0110828E81E0
S11306008F5F8E838E818A3078F3109231018091CE
S11306105A0190915B01A0915C01B0915D01813917
S11306209140A105B1056CF080915601909157015C
S1130630A0915801B091590181399140A105B105AA
S113064044F58BE290E02BE230E0F9012081246054
S1130650FC01208380910001909101010E94050A10
S113066010922601109227011F820EC020911801BA
S1130670309119018F81882F90E0820F931FFC0124
S113068010828F818F5F8F838F818A3078F31092ED
S11306903101209102013091030180910001909178
S11306A00101B9010E94CB0480912701813009F036
S11306B0FCCE80913101823008F4F7CE20910601FE
S11306C03091070180910401909105014DE750E0BC
S11306D0B9010E947D078093280180912801882F09
S11306E090E00E94B40110922701DFCE1F920F9276
S11306F000905F000F9211240F931F932F933F9349
S11307004F935F936F937F938F939F93AF93BF9315
S1130710EF93FF93CF93DF93CDB7DEB70E94BF0B68
S113072080911C0190911D01A0911E01B0911F01A7
S11307300296A11DB11D80931C0190931D01A093ED
S11307401E01B0931F018091200190912101A0917D
S11307502201B09123010296A11DB11D80932001B5
S113076090932101A0932201B0932301809125014C
S11307708F5F80932501809125018A3009F085C01F
S11307801092250180912701882309F07EC02091D1
S113079004013091050180912601882F90E0880F93
S11307A0991F8901080F191F80914E0190914F01E3
S11307B0A0915001B0915101880F991FAA1FBB1F2E
S11307C09C01AD01220F331F441F551F220F331FFD
S11307D0441F551F820F931FA41FB51F209156015C
S11307E0309157014091580150915901BC01CD01FC
S11307F00E94E60FDA01C901F801918380832091F8
S113080006013091070180912601882F90E0880F1E
S1130810991F8901080F191F80915201909153016A
S1130820A0915401B0915501880F991FAA1FBB1FB5
S11308309C01AD01220F331F441F551F220F331F8C
S1130840441F551F820F931FA41FB51F20915A01E7
S113085030915B0140915C0150915D01BC01CD017F
S11308600E94E60FDA01C901F80191838083809127
S113087026018F5F80932601809126018D3729F40C
S11308801092260181E0809327010000DF91CF912F
S1130890FF91EF91BF91AF919F918F917F916F9154
S11308A05F914F913F912F911F910F910F90009263
S11308B05F000F901F901895CF93DF9300D01F9285
S11308C0CDB7DEB79B838A838AE290E02AE230E0E8
S11308D0F90120812068FC01208384E290E024E275
S11308E030E0F90120812160FC0120838BE290E05B
S11308F02BE230E0F90120812F77FC01208385E28F
S113090090E025E230E0F90120812E7FFC01208374
S1130910198234C08A819B81FC0110821182128267
S113092013828BE290E02BE230E0F9012081206811
S1130930FC01208300008A819B81FC0180819181DC
S1130940A281B3810497A105B105A8F38BE290E0DD
S11309502BE230E0F90120812F77FC012083000095
S11309608A819B81FC0180819181A281B381089756
S1130970A105B105A8F389818F5F898389818436B4
S113098048F281E080932D0100000F900F900F90AA
S1130990DF91CF910895AF92BF92CF92DF92EF9201
S11309A0FF920F931F93CF93DF9300D000D01F9239
S11309B0CDB7DEB79B838A837D836C838A819B81D9
S11309C0FC0180819181A281B381813D9740A10581
S11309D0B10508F481C220915E0130915F0140911C
S11309E060015091610180910C0190910D01A091E1
S11309F00E01B0910F01281739074A075B07BCF4B1
S1130A0080915E0190915F01A0916001B0916101BC
S1130A1080930C0190930D01A0930E01B0930F01EC
S1130A208C819D81FC01108211821282138220919B
S1130A30620130916301409164015091650180919C
S1130A40140190911501A0911601B0911701281776
S1130A5039074A075B07BCF48091620190916301F6
S1130A60A0916401B09165018093140190931501E4
S1130A70A0931601B09317018C819D81FC01108213
S1130A8011821282138220915E0130915F014091A4
S1130A906001509161018091080190910901A09138
S1130AA00A01B0910B0182179307A407B507BCF4A0
S1130AB080915E0190915F01A0916001B09161010C
S1130AC08093080190930901A0930A01B0930B014C
S1130AD08C819D81FC0110821182128213822091EB
S1130AE062013091630140916401509165018091EC
S1130AF0100190911101A0911201B091130182177C
S1130B009307A407B507BCF4809162019091630137
S1130B10A0916401B091650180931001909311013B
S1130B20A0931201B09313018C819D81FC0110826A
S1130B301182128213828C819D81FC0180819181BA
S1130B40A281B381883C9105A105B10508F4C4C113
S1130B502091100130911101409112015091130123
S1130B608091140190911501A0911601B091170183
S1130B70281B390B4A0B5B0BE0900801F09009012C
S1130B8000910A0110910B0180910C0190910D01CB
S1130B90A0910E01B0910F0157016801A81AB90A7A
S1130BA0CA0ADB0AD601C50182179307A407B50751
S1130BB00CF52091100130911101409112015091D6
S1130BC013018091140190911501A0911601B09127
S1130BD0170169017A01C81AD90AEA0AFB0AD7017E
S1130BE0C6018093290190932A01A0932B01B0930D
S1130BF02C0120C0209108013091090140910A0183
S1130C0050910B0180910C0190910D01A0910E0166
S1130C10B0910F0179018A01E81AF90A0A0B1B0B3A
S1130C20D801C7018093290190932A01A0932B0135
S1130C30B0932C012091290130912A0140912B017C
S1130C4050912C0180E991E0A0E0B0E0BC01CD011D
S1130C500E94C40FDA01C90180932E0180912E01F4
S1130C60843618F084E680932E0180912E01823020
S1130C7018F481E080932E011092300110922F011C
S1130C80809131018A3028F4809131018F5F809303
S1130C903101198227C08981882F90E02981222F70
S1130CA030E02F5F3F4F265A3C4FF9012081865A8E
S1130CB09C4FFC0120838981882F90E00196865AFD
S1130CC09C4FFC018081282F30E080912F0190916E
S1130CD03001820F931F9093300180932F018981FB
S1130CE08F5F898389818930B0F280912E0180934E
S1130CF0630380916303282F30E080912F0190914A
S1130D003001820F931F9093300180932F018091C3
S1130D102F019091300120913101222F30E0B9014F
S1130D200E949C0FCB019093300180932F018091FE
S1130D302D01282F30E080912F0190913001281748
S1130D40390708F04DC085E290E025E230E0F90172
S1130D5020812160FC01208336C08A819B81FC01B3
S1130D6010821182128213828BE290E02BE230E037
S1130D70F90120812068FC01208300008A819B8185
S1130D80FC0180819181A281B3810497A105B10501
S1130D90A8F38BE290E02BE230E0F90120812F7779
S1130DA0FC01208300008A819B81FC018081918168
S1130DB0A281B3810897A105B105A8F380912D0103
S1130DC08F5F80932D0180912D01282F30E0809139
S1130DD02F01909130012817390708F4BECF4CC079
S1130DE085E290E025E230E0F90120812E7FFC01CC
S1130DF0208336C08A819B81FC0110821182128279
S1130E0013828BE290E02BE230E0F901208120682C
S1130E10FC01208300008A819B81FC0180819181F7
S1130E20A281B3810497A105B105A8F38BE290E0F8
S1130E302BE230E0F90120812F77FC0120830000B0
S1130E408A819B81FC0180819181A281B381089771
S1130E50A105B105A8F380912D01815080932D0146
S1130E6080912D01282F30E080912F019091300145
S1130E708217930708F4BECF81E09CEFAFEFBFEF7A
S1130E808093080190930901A0930A01B0930B0188
S1130E908FEF93E0A0E0B0E080930C0190930D01FC
S1130EA0A0930E01B0930F0181E09CEFAFEFBFEF71
S1130EB08093100190931101A0931201B093130138
S1130EC08FEF93E0A0E0B0E08093140190931501BC
S1130ED0A0931601B093170100000F900F900F908C
S1130EE00F900F90DF91CF911F910F91FF90EF9092
S1130EF0DF90CF90BF90AF900895CF92DF92EF92A2
S1130F00FF920F931F93CF93DF93CDB7DEB728974C
S1130F100FB6F894DEBF0FBECDBF9C838B837E8358
S1130F206D8358874F83198291C08981882F90E0FF
S1130F30880F991F2B813C81820F931FFC014081F4
S1130F4051818981882F90E0880F991F2B813C81E2
S1130F50820F931FFC0180819181489F9001499FDA
S1130F60300D589F300D112444E1429FC001439F2E
S1130F70900D1124092E000CAA0BBB0BBC01CD0152
S1130F800E941F0E7B018C018091320190913301EC
S1130F90A0913401B09135019C01AD01C801B701A4
S1130FA00E94040DDC01CB01809332019093330144
S1130FB0A0933401B09335018981882F90E0880F84
S1130FC0991F2D813E81820F931FFC014081518125
S1130FD08981882F90E0880F991F2D813E81820F8F
S1130FE0931FFC0180819181489F9001499F300D9E
S1130FF0589F300D112444E1429FC001439F900D3E
S11310001124092E000CAA0BBB0BBC01CD010E94BC
S11310101F0E7B018C018091360190913701A091C4
S11310203801B09139019C01AD01C801B7010E949A
S1131030040DDC01CB018093360190933701A0931A
S11310403801B093390189818F5F89838981282F81
S113105030E08F819885281739070CF466CFC0904B
S11310603201D0903301E0903401F09035012F81AA
S1131070388544E1429FC001439F900D1124092EFD
S1131080000CAA0BBB0BBC01CD010E941F0EDC019E
S1131090CB019C01AD01C701B6010E94750DDC01B5
S11310A0CB018093320190933301A0933401B09328
S11310B03501C0903601D0903701E0903801F090AE
S11310C039012F81388544E1429FC001439F900D2F
S11310D01124092E000CAA0BBB0BBC01CD010E94EC
S11310E01F0EDC01CB019C01AD01C701B6010E94BA
S11310F0750DDC01CB018093360190933701A093E9
S11311003801B09339018091320190913301A0915B
S11311103401B0913501BC01CD010E94470FDC01BF
S1131120CB018093320190933301A0933401B093A7
S113113035018091360190913701A0913801B09129
S11311403901BC01CD010E94470FDC01CB01809322
S1131150360190933701A0933801B09339018091FF
S1131160360190913701A0913801B0913901209155
S11311703201309133014091340150913501BC0169
S1131180CD010E94750DDC01CB0180933A0190934F
S11311903B01A0933C01B0933D0180913A019091B1
S11311A03B01A0913C01B0913D0120E030E0A90158
S11311B0BC01CD010E94CF0E18160CF064C08091C2
S11311C03A0190913B01A0913C01B0913D0120E096
S11311D030E040EA50E4BC01CD010E94700D882348
S11311E00CF051C080913A0190913B01A0913C01D7
S11311F0B0913D0120913A0130913B0140913C0175
S113120050913D01BC01CD010E94D40EDC01CB0103
S11312102AE037ED47E951ECBC01CD010E94D40E20
S1131220DC01CB016C017D0180913A0190913B017D
S1131230A0913C01B0913D0126EB33EF49EF50E41E
S1131240BC01CD010E94D40EDC01CB019C01AD0197
S1131250C701B6010E94040DDC01CB012AE939E97A
S113126045EC52E4BC01CD010E94040DDC01CB012C
S113127080933E0190933F01A0934001B0934101BC
S113128081E0809344011092320110923301109254
S113129034011092350110923601109237011092E8
S11312A038011092390180914401813009F072C0F3
S11312B01092430110924201809145018A3028F432
S11312C0809145018F5F809345011A822EC08A81E7
S11312D0882F90E02A81222F30E02F5F3F4F220F8A
S11312E0331F2C593C4FF90120813181880F991FFC
S11312F08C599C4FFC01318320838A81882F90E094
S11313000196880F991F8C599C4FFC0120813181D3
S11313108091420190914301820F931F9093430166
S1131320809342018A818F5F8A838A81893078F22F
S113133080913E0190913F01A0914001B091410103
S1131340BC01CD010E94E70DDC01CB019093770332
S11313508093760320917603309177038091420144
S113136090914301820F931F909343018093420114
S1131370809142019091430120914501222F30E058
S1131380B9010E94B00FCB019093430180934201B5
S113139010924401809142019091430128960FB626
S11313A0F894DEBF0FBECDBFDF91CF911F910F9197
S11313B0FF90EF90DF90CF900895CF93DF93CDB758
S11313C0DEB780914A0190914B01893E9340C0F071
S11313D080914C0190914D01893E934088F08AE8B8
S11313E090E023EA32E0FC013183208388E890E036
S11313F023EA32E0FC013183208380E090E002C0E4
S113140081E090E0DF91CF910895CF93DF9300D0F6
S1131410CDB7DEB79A83898389819A81FC011082D2
S11314201182128213824EC089819A81FC018081CB
S11314309181A281B381883C9105A105B105D0F1C8
S113144088E890E0FC01808191818E3F9F4090F577
S113145080915A0190915B01A0915C01B0915D0172
S1131460843F9140A105B105A4F488E890E028E800
S113147030E0F901208131812E5F3F4FFC0131833F
S1131480208389819A81FC01108211821282138245
S113149011C088E890E0FC01208131812F5F3F4F2B
S11314A0FC013183208389819A81FC01108211829D
S11314B01282138288E890E0FC01808191818E3F42
S11314C09F40A0F480915A0190915B01A0915C012E
S11314D0B0915D0188359240A105B1050CF056C06C
S11314E00E94DD09019709F49FCF50C000004EC04F
S11314F089819A81FC0180819181A281B381883C98
S11315009105A105B105D0F18AE890E0FC01808144
S113151091818E3F9F4090F58091560190915701A3
S1131520A0915801B0915901843F9140A105B105A2
S1131530A4F48AE890E02AE830E0F90120813181BE
S11315402E5F3F4FFC013183208389819A81FC0106
S1131550108211821282138211C08AE890E0FC0189
S1131560208131812F5F3F4FFC01318320838981AA
S11315709A81FC0110821182128213828AE890E01F
S1131580FC01808191818E3F9F4098F480915601A7
S113159090915701A0915801B0915901883592401A
S11315A0A105B1053CF40E94DD09019709F4A0CF1F
S11315B001C0000000000F900F90DF91CF910895BB
S11315C0CF93DF9300D0CDB7DEB79A838983898127
S11315D09A81FC01108211821282138250C0898187
S11315E09A81FC0180819181A281B381883C91051B
S11315F0A105B105E0F188E890E0FC0180819181CA
S11316008C379240A0F180915A0190915B01A09196
S11316105C01B0915D018D3B9240A105B105A4F040
S113162088E890E028E830E0F901208131812250F7
S11316303109FC013183208389819A81FC01108264
S113164011821282138213C088E890E028E830E007
S1131650F9012081318121503109FC01318320833A
S113166089819A81FC01108211821282138288E896
S113167090E0FC01808191818C379240A0F08091B0
S11316805A0190915B01A0915C01B0915D01883594
S11316909240A105B1050CF458C00E94DD090197E0
S11316A009F49DCF52C0000050C089819A81FC0189
S11316B080819181A281B381883C9105A105B10506
S11316C0E0F18AE890E0FC01808191818C379240BE
S11316D0A0F18091560190915701A0915801B091C9
S11316E059018D3B9240A105B105A4F08AE890E030
S11316F02AE830E0F9012081318122503109FC01CE
S11317003183208389819A81FC01108211821282A3
S1131710138213C08AE890E02AE830E0F9012081BE
S1131720318121503109FC013183208389819A81DF
S1131730FC0110821182128213828AE890E0FC017B
S1131740808191818C37924098F0809156019091DC
S11317505701A0915801B091590188359240A105D3
S1131760B1053CF00E94DD09019709F49ECF01C048
S1131770000000000F900F90DF91CF910895EF9239
S1131780FF920F931F93CF93DF93CDB7DEB782E021
S11317900E949400909347018093460183E00E9445
S11317A09400909349018093480180E00E94940042
S11317B090934B0180934A0181E00E94940090939E
S11317C04D0180934C0120914E0130914F01409185
S11317D050015091510183E790E0DC010E94051013
S11317E0DC01CB019C01AD01689416F85595479531
S11317F0379527951694D1F780914601909147012A
S1131800BC017250EDE0E69FC001E79F900D1124EA
S1131810880F892F881F990B092E000CAA0BBB0B6C
S1131820820F931FA41FB51F80934E0190934F0105
S1131830A0935001B0935101209152013091530172
S1131840409154015091550183E790E0DC010E94DE
S11318500510DC01CB019C01AD01689416F8559587
S11318604795379527951694D1F780914801909123
S11318704901BC017250EDE0E69FC001E79F900D65
S11318801124880F892F881F990B092E000CAA0B8D
S1131890BB0B820F931FA41FB51F8093520190931B
S11318A05301A0935401B0935501209156013091F6
S11318B0570140915801509159018EE790E0DC01A5
S11318C00E940510DC01CB019C01AD01689416F85F
S11318D055954795379527951694D1F780914A01E8
S11318E090914B01880F991F880F892F881F990B9E
S11318F0092E000CAA0BBB0B820F931FA41FB51F4C
S11319008093560190935701A0935801B0935901C5
S113191020915A0130915B0140915C0150915D012D
S11319208EE790E0DC010E940510DC01CB019C01F4
S1131930AD01689416F855954795379527951694F3
S1131940D1F780914C0190914D01880F991F880F18
S1131950892F881F990B092E000CAA0BBB0B820F31
S1131960931FA41FB51F80935A0190935B01A0930A
S11319705C01B0935D0180914A0190914B019C01FF
S1131980990F440B550B8091560190915701A091EA
S11319905801B091590179018A01E81AF90A0A0B30
S11319A01B0BD801C70180935E0190935F01A09344
S11319B06001B093610180914C0190914D019C01B3
S11319C0990F440B550B80915A0190915B01A091A2
S11319D05C01B0915D0179018A01E81AF90A0A0BE8
S11319E01B0BD801C7018093620190936301A093FC
S11319F06401B09365010000DF91CF911F910F91B5
S1131A00FF90EF9008955058BB27AA270E941B0D02
S1131A100C94950E0E94870E38F00E948E0E20F0D2
S1131A2039F49F3F19F426F40C94840E0EF4E095D7
S1131A30E7FB0C947E0EE92F0E94A60E58F3BA170A
S1131A40620773078407950720F079F4A6F50C94D0
S1131A50C80E0EF4E0950B2EBA2FA02D0B01B90180
S1131A6090010C01CA01A0011124FF27591B99F010
S1131A70593F50F4503E68F11A16F040A22F232F1C
S1131A80342F4427585FF3CF469537952795A7956C
S1131A90F0405395C9F77EF41F16BA0B620B730B13
S1131AA0840BBAF09150A1F0FF0FBB1F661F771F84
S1131AB0881FC2F70EC0BA0F621F731F841F48F439
S1131AC0879577956795B795F7959E3F08F0B0CFC2
S1131AD09395880F08F09927EE0F979587950895A9
S1131AE00E945A0E08F481E008950E94890D0C9416
S1131AF0950E0E948E0E58F00E94870E40F029F435
S1131B005F3F29F00C947E0E51110C94C90E0C9475
S1131B10840E0E94A60E68F39923B1F3552391F322
S1131B20951B550BBB27AA2762177307840738F048
S1131B309F5F5F4F220F331F441FAA1FA9F335D0A5
S1131B400E2E3AF0E0E832D091505040E695001C59
S1131B50CAF72BD0FE2F29D0660F771F881FBB1F13
S1131B60261737074807AB07B0E809F0BB0B802DF1
S1131B70BF01FF2793585F4F3AF09E3F510578F01D
S1131B800C947E0E0C94C90E5F3FE4F3983ED4F39C
S1131B90869577956795B795F7959F5FC9F7880FF1
S1131BA0911D9695879597F90895E1E0660F771F43
S1131BB0881FBB1F621773078407BA0720F0621BD4
S1131BC0730B840BBA0BEE1F88F7E09508950E94FF
S1131BD0EE0D6894B1110C94C90E08950E94AE0ED6
S1131BE088F09F5798F0B92F9927B751B0F0E1F0DA
S1131BF0660F771F881F991F1AF0BA95C9F714C08A
S1131C00B13091F00E94C80EB1E008950C94C80E52
S1131C10672F782F8827B85F39F0B93FCCF38695C2
S1131C2077956795B395D9F73EF49095809570951F
S1131C3061957F4F8F4F9F4F0895E89409C097FB9C
S1131C403EF490958095709561957F4F8F4F9F4F8F
S1131C509923A9F0F92F96E9BB279395F6958795D3
S1131C6077956795B795F111F8CFFAF4BB0F11F496
S1131C7060FF1BC06F5F7F4F8F4F9F4F16C088233D
S1131C8011F096E911C0772321F09EE8872F762F73
S1131C9005C0662371F096E8862F70E060E02AF0B4
S1131CA09A95660F771F881FDAF7880F96958795A0
S1131CB097F90895990F0008550FAA0BE0E8FEEF75
S1131CC016161706E807F907C0F012161306E407FC
S1131CD0F50798F0621B730B840B950B39F40A26F5
S1131CE061F0232B242B252B21F408950A2609F4D3
S1131CF0A140A6958FEF811D811D089597F99F67D7
S1131D0080E870E060E008959FEF80EC089500247F
S1131D100A941616170618060906089500240A944C
S1131D2012161306140605060895092E0394000CD2
S1131D3011F4882352F0BB0F40F4BF2B11F460FF61
S1131D4004C06F5F7F4F8F4F9F4F089557FD90588A
S1131D50440F551F59F05F3F71F04795880F97FB6B
S1131D60991F61F09F3F79F0879508951216130625
S1131D701406551FF2CF4695F1DF08C01616170654
S1131D801806991FF1CF8695710561050894089589
S1131D90E894BB2766277727CB0197F908950E941B
S1131DA05A0E08F48FEF08950E94E70E0C94950ED6
S1131DB00E94870E38F00E948E0E20F0952311F0B9
S1131DC00C947E0E0C94840E11240C94C90E0E9463
S1131DD0A60E70F3959FC1F3950F50E0551F629FB7
S1131DE0F001729FBB27F00DB11D639FAA27F00D70
S1131DF0B11DAA1F649F6627B00DA11D661F829F97
S1131E002227B00DA11D621F739FB00DA11D621F7B
S1131E10839FA00D611D221F749F3327A00D611D98
S1131E20231F849F600D211D822F762F6A2F11247A
S1131E309F5750409AF0F1F088234AF0EE0FFF1FAD
S1131E40BB1F661F771F881F91505040A9F79E3F04
S1131E50510580F00C947E0E0C94C90E5F3FE4F3A0
S1131E60983ED4F3869577956795B795F795E7955A
S1131E709F5FC1F7FE2B880F911D9695879597F963
S1131E80089519F416F40C94840E0C94870F0E9490
S1131E90AE0EB8F39923C9F3B6F39F57550B87FFDA
S1131EA00E94950F0024A0E640EA900180585695C0
S1131EB0979528F4805C660F771F881F20F02617FB
S1131EC03707480730F4621B730B840B2029312930
S1131ED04A2BA69517940794202531254A2758F7AD
S1131EE0660F771F881F20F026173707480730F43E
S1131EF0620B730B840B200D311D411DA09581F7DE
S1131F00B901842F9158880F9695879508959F3F1E
S1131F1031F0915020F4879577956795B795880FA0
S1131F20911D9695879597F9089591505040660FA5
S1131F30771F881FD2F70895AA1BBB1B51E107C066
S1131F40AA1FBB1FA617B70710F0A61BB70B881F45
S1131F50991F5A95A9F780959095BC01CD010895D4
S1131F6097FB072E16F4009407D077FD09D00E9442
S1131F709C0F07FC05D03EF4909581959F4F0895E2
S1131F80709561957F4F0895A1E21A2EAA1BBB1B81
S1131F90FD010DC0AA1FBB1FEE1FFF1FA217B30731
S1131FA0E407F50720F0A21BB30BE40BF50B661F47
S1131FB0771F881F991F1A9469F76095709580950B
S1131FC090959B01AC01BD01CF010895052E97FBAF
S1131FD01EF400940E94FD0F57FD07D00E94C40F09
S1131FE007FC03D04EF40C94FD0F509540953095AA
S1131FF021953F4F4F4F5F4F089590958095709571
S113200061957F4F8F4F9F4F08950E941010A59F99
S1132010900DB49F900DA49F800D911D11240895DF
S1132020A29FB001B39FC001A39F700D811D112415
S1132030911DB29F700D811D1124911D0895FC0105
S113204001900020E9F7809590958E0F9F1F0895C9
S11320504532510520F4423010F00C943310FB014A
S11320601082CB010895BB274A3031F4992322F41E
S1132070BDE2909581959F4F0C943F10BB27FB01C7
S11320805527AA27880F991FAA1FA41710F0A41B6D
S113209083955051B9F7A05DAA3308F0A95DA193C7
S11320A0009779F7B111B1931192CB010C945810A8
S11320B0DC01FC01672F71917723E1F7329704C0AB
S11320C07C916D9370836291AE17BF07C8F3089536
S10720D0F894FFCFAE
S11320D41C0120016601600201FCFFFFFF030000F4
S10F20E401FCFFFFFF0300005A0364032B
S9030000FC
